{
  "contractName": "Auction",
  "abi": [
    {
      "inputs": [],
      "stateMutability": "nonpayable",
      "type": "constructor"
    },
    {
      "anonymous": false,
      "inputs": [
        {
          "indexed": false,
          "internalType": "address",
          "name": "previousOwner",
          "type": "address"
        },
        {
          "indexed": false,
          "internalType": "address",
          "name": "newOwner",
          "type": "address"
        }
      ],
      "name": "AuctionFinished",
      "type": "event"
    },
    {
      "anonymous": false,
      "inputs": [
        {
          "indexed": false,
          "internalType": "address",
          "name": "newMaxAddress",
          "type": "address"
        },
        {
          "indexed": false,
          "internalType": "uint256",
          "name": "value",
          "type": "uint256"
        }
      ],
      "name": "NewBet",
      "type": "event"
    },
    {
      "inputs": [
        {
          "internalType": "uint256",
          "name": "_value",
          "type": "uint256"
        }
      ],
      "name": "newBet",
      "outputs": [
        {
          "internalType": "bool",
          "name": "",
          "type": "bool"
        }
      ],
      "stateMutability": "payable",
      "type": "function",
      "payable": true
    },
    {
      "inputs": [],
      "name": "getCurrentMax",
      "outputs": [
        {
          "internalType": "address",
          "name": "",
          "type": "address"
        },
        {
          "internalType": "address",
          "name": "",
          "type": "address"
        },
        {
          "internalType": "uint256",
          "name": "",
          "type": "uint256"
        },
        {
          "internalType": "uint256",
          "name": "",
          "type": "uint256"
        }
      ],
      "stateMutability": "view",
      "type": "function",
      "constant": true
    },
    {
      "inputs": [],
      "name": "finishAuction",
      "outputs": [
        {
          "internalType": "bool",
          "name": "",
          "type": "bool"
        }
      ],
      "stateMutability": "payable",
      "type": "function",
      "payable": true
    }
  ],
  "bytecode": "0x6080604052600060015534801561001557600080fd5b5033600260006101000a81548173ffffffffffffffffffffffffffffffffffffffff021916908373ffffffffffffffffffffffffffffffffffffffff16021790555033600360006101000a81548173ffffffffffffffffffffffffffffffffffffffff021916908373ffffffffffffffffffffffffffffffffffffffff1602179055506002600081905550610b2a806100af6000396000f3fe6080604052600436106100345760003560e01c80630d3888c614610039578063430ca46f1461006957806381d02ebb14610087575b600080fd5b610053600480360381019061004e919061064e565b6100b5565b6040516100609190610696565b60405180910390f35b610071610382565b60405161007e9190610696565b60405180910390f35b34801561009357600080fd5b5061009c6105b3565b6040516100ac9493929190610701565b60405180910390f35b60008160005481116100fc576040517f08c379a00000000000000000000000000000000000000000000000000000000081526004016100f3906107a3565b60405180910390fd5b82803373ffffffffffffffffffffffffffffffffffffffff163111610156576040517f08c379a000000000000000000000000000000000000000000000000000000000815260040161014d90610835565b60405180910390fd5b600360009054906101000a900473ffffffffffffffffffffffffffffffffffffffff1673ffffffffffffffffffffffffffffffffffffffff163373ffffffffffffffffffffffffffffffffffffffff16036101e6576040517f08c379a00000000000000000000000000000000000000000000000000000000081526004016101dd906108a1565b60405180910390fd5b600260009054906101000a900473ffffffffffffffffffffffffffffffffffffffff1673ffffffffffffffffffffffffffffffffffffffff163373ffffffffffffffffffffffffffffffffffffffff1603610276576040517f08c379a000000000000000000000000000000000000000000000000000000000815260040161026d9061090d565b60405180910390fd5b83600460003373ffffffffffffffffffffffffffffffffffffffff1673ffffffffffffffffffffffffffffffffffffffff1681526020019081526020016000208190555083600081905550600160008154809291906102d49061095c565b919050555033600360006101000a81548173ffffffffffffffffffffffffffffffffffffffff021916908373ffffffffffffffffffffffffffffffffffffffff1602179055507f15f528ef064d916438cdf46f2b272384a7e9459ab69445d805472aa3dfe1535e600360009054906101000a900473ffffffffffffffffffffffffffffffffffffffff1660005460405161036f9291906109a4565b60405180910390a1600192505050919050565b6000600260009054906101000a900473ffffffffffffffffffffffffffffffffffffffff1673ffffffffffffffffffffffffffffffffffffffff163373ffffffffffffffffffffffffffffffffffffffff1614610414576040517f08c379a000000000000000000000000000000000000000000000000000000000815260040161040b90610a3f565b60405180910390fd5b600360009054906101000a900473ffffffffffffffffffffffffffffffffffffffff1673ffffffffffffffffffffffffffffffffffffffff16600260009054906101000a900473ffffffffffffffffffffffffffffffffffffffff1673ffffffffffffffffffffffffffffffffffffffff16036104c6576040517f08c379a00000000000000000000000000000000000000000000000000000000081526004016104bd90610aab565b60405180910390fd5b6000600260009054906101000a900473ffffffffffffffffffffffffffffffffffffffff169050600360009054906101000a900473ffffffffffffffffffffffffffffffffffffffff16600260006101000a81548173ffffffffffffffffffffffffffffffffffffffff021916908373ffffffffffffffffffffffffffffffffffffffff1602179055507ffbb4b4d423327e3994760c5961e85f35f27800a93a20af88c072939bce2758c181600260009054906101000a900473ffffffffffffffffffffffffffffffffffffffff166040516105a3929190610acb565b60405180910390a1600191505090565b600080600080600360009054906101000a900473ffffffffffffffffffffffffffffffffffffffff16600260009054906101000a900473ffffffffffffffffffffffffffffffffffffffff16600054600154935093509350935090919293565b600080fd5b6000819050919050565b61062b81610618565b811461063657600080fd5b50565b60008135905061064881610622565b92915050565b60006020828403121561066457610663610613565b5b600061067284828501610639565b91505092915050565b60008115159050919050565b6106908161067b565b82525050565b60006020820190506106ab6000830184610687565b92915050565b600073ffffffffffffffffffffffffffffffffffffffff82169050919050565b60006106dc826106b1565b9050919050565b6106ec816106d1565b82525050565b6106fb81610618565b82525050565b600060808201905061071660008301876106e3565b61072360208301866106e3565b61073060408301856106f2565b61073d60608301846106f2565b95945050505050565b600082825260208201905092915050565b7f4c612061707565737461206d6178696d61206573206d61796f722e0000000000600082015250565b600061078d601b83610746565b915061079882610757565b602082019050919050565b600060208201905081810360008301526107bc81610780565b9050919050565b7f4e6f2074656e657320656874657220737566696369656e74652070617261207260008201527f65616c697a6172206c6120617075657374612e00000000000000000000000000602082015250565b600061081f603383610746565b915061082a826107c3565b604082019050919050565b6000602082019050818103600083015261084e81610812565b9050919050565b7f596120706f736565206c612061707565737461206d6178696d612e0000000000600082015250565b600061088b601b83610746565b915061089682610855565b602082019050919050565b600060208201905081810360008301526108ba8161087e565b9050919050565b7f557374656420657320656c2076656e6465646f722e0000000000000000000000600082015250565b60006108f7601583610746565b9150610902826108c1565b602082019050919050565b60006020820190508181036000830152610926816108ea565b9050919050565b7f4e487b7100000000000000000000000000000000000000000000000000000000600052601160045260246000fd5b600061096782610618565b91507fffffffffffffffffffffffffffffffffffffffffffffffffffffffffffffffff82036109995761099861092d565b5b600182019050919050565b60006040820190506109b960008301856106e3565b6109c660208301846106f2565b9392505050565b7f536f6c6f20656c206475656e6f2064656c20636f6e747261746f20707565646560008201527f20636572726172206c6120737562617374612e00000000000000000000000000602082015250565b6000610a29603383610746565b9150610a34826109cd565b604082019050919050565b60006020820190508181036000830152610a5881610a1c565b9050919050565b7f4e6f2068617920617075657374617320696e696369616c65732e000000000000600082015250565b6000610a95601a83610746565b9150610aa082610a5f565b602082019050919050565b60006020820190508181036000830152610ac481610a88565b9050919050565b6000604082019050610ae060008301856106e3565b610aed60208301846106e3565b939250505056fea2646970667358221220f9643d7b56e55202c04d72e0877e9cb23dea8438665c09710f5271813efb113064736f6c63430008110033",
  "immutableReferences": {},
  "source": "// SPDX-License-Identifier: GPL-3.0\n\npragma solidity 0.8.17;\n\ncontract Auction {\n\n    uint maxBet;\n    uint bidQuantity = 0;\n    address owner;\n    address currentWinner;\n    mapping (address => uint) bets;\n\n    event NewBet(address newMaxAddress, uint value);\n    event AuctionFinished(address previousOwner, address newOwner);\n\n    modifier onlyOwner() {\n        require(msg.sender == owner, \"Solo el dueno del contrato puede cerrar la subasta.\");\n\t\t_;\n    }\n \n    modifier minimunBet(uint _value) {\n        require(_value > maxBet, \"La apuesta maxima es mayor.\");\n\t\t_;\n    }\n    \n    modifier maximumBet(uint _value) {\n        require(msg.sender.balance > _value, \"No tenes ehter suficiente para realizar la apuesta.\");\n\t\t_;\n    }\n \n    modifier alreadyWinner() {\n        require(msg.sender != currentWinner, \"Ya posee la apuesta maxima.\");\n\t\t_;\n    }\n    \n    modifier nobodyBids() {\n        require(owner != currentWinner, \"No hay apuestas iniciales.\");\n\t\t_;\n    }\n    \n\n    modifier ownerCantBet() {\n        require(msg.sender != owner, \"Usted es el vendedor.\");\n\t\t_;\n    }\n        \n    constructor() {\n        owner = msg.sender;\n        currentWinner = msg.sender;\n        maxBet = 2;\n    }\n\n    function newBet(uint _value) public minimunBet(_value) maximumBet(_value) alreadyWinner ownerCantBet payable returns (bool){\n        bets[msg.sender] = _value;\n        maxBet = _value;\n        bidQuantity++;\n        currentWinner = msg.sender;\n        emit NewBet(currentWinner, maxBet);\n        return true;\n    }\n\n    function getCurrentMax() public view returns (address, address, uint, uint) {\n        return (currentWinner, owner, maxBet, bidQuantity);\n    }\n\n    function finishAuction() public onlyOwner nobodyBids payable returns (bool) {\n        address previousOwner = owner;\n        owner = currentWinner;\n        \n        emit AuctionFinished(previousOwner, owner);\n        return true;\n    }\n}",
  "sourcePath": "C:\\Users\\marti\\Desktop\\trabajo-final-blockchain\\Blockchain\\contracts\\Auction.sol",
  "compiler": {
    "name": "solc",
    "version": "0.8.17+commit.8df45f5f.Emscripten.clang"
  },
  "schemaVersion": "3.4.9",
  "updatedAt": "2022-09-14T22:20:04.465Z",
  "networkType": "ethereum",
  "devdoc": {
    "kind": "dev",
    "methods": {},
    "version": 1
  },
  "userdoc": {
    "kind": "user",
    "methods": {},
    "version": 1
  }
}